:020000040800F2
:10000000B00400209D010008E516000861160008F4
:10001000E1160008B1020008151C000800000000ED
:10002000000000000000000000000000ED160008C5
:10003000B502000800000000E9160008F1160008EB
:10004000B7010008B7010008B7010008B7010008B0
:10005000B7010008B7010008B7010008B7010008A0
:10006000B7010008B7010008B7010008B701000890
:10007000B7010008B7010008B7010008B701000880
:10008000B7010008B7010008B7010008B701000870
:10009000B7010008B7010008B7010008B701000860
:1000A000B7010008B7010008B7010008B701000850
:1000B000B7010008B7010008B7010008B701000840
:1000C000B7010008B7010008B7010008B701000830
:1000D000B7010008A9190008B7010008B701000816
:1000E000B7010008B7010008B7010008B701000810
:1000F000B7010008B7010008B7010008B701000800
:10010000B7010008B7010008B7010008B7010008EF
:10011000B7010008B7010008B7010008B7010008DF
:10012000B7010008B7010008B7010008B7010008CF
:10013000B7010008B7010008B7010008B7010008BF
:10014000B7010008B7010008B7010008B7010008AF
:10015000B7010008B7010008B7010008B70100089F
:10016000B7010008B7010008B7010008B70100088F
:10017000B7010008B7010008B7010008000000003F
:10018000B7010008B7010008DFF80CD000F07EF8D6
:1001900000480047E91C0008B004002006488047DA
:1001A00006480047FEE7FEE7FEE7FEE7FEE7FEE75C
:1001B000FEE7FEE7FEE7FEE7A51700088901000855
:1001C0002DE9F05F0546002092469B46884606468C
:1001D000814640241BE0284641464746224600F01F
:1001E00045F853465A46C01A914110D31146184655
:1001F000224600F02CF82D1A67EB01084F462246E4
:100200000120002100F023F817EB00094E41201EC9
:10021000A4F10104DFDC484631462A464346BDE8E6
:10022000F09F30B50B46014600202022012409E052
:1002300021FA02F59D4205D303FA02F5491B04FA9F
:1002400002F52844151EA2F10102F1DC30BD202A7E
:1002500004DB203A00FA02F1002070479140C2F11D
:10026000200320FA03F3194390407047202A04DB4F
:10027000203A21FA02F00021704721FA02F3D0401F
:10028000C2F120029140084319467047064C074DC1
:1002900006E0E06840F0010394E807009847103456
:1002A000AC42F6D3FFF774FF10200008302000089E
:1002B000FEE7000070470000EFF3108072B600BF49
:1002C000FEE7000070B5866D044600F049F994F829
:1002D000351002292ED105462068216C026822F0D3
:1002E00016020260426922F08002426109B9A16CE3
:1002F00019B1016821F008010160016821F00101D4
:1003000001600068C00708D000F02AF9401B0528EA
:1003100018D820680068C007F6D1E06D3F2101FAC7
:1003200000F0B060012084F835000020002184F83E
:10033000341070BD802060650120002184F83410E5
:1003400070BD00BF20206065032084F835000021C7
:1003500084F8341070BD000090F83510022909D1DE
:10036000052180F835100068016821F00101016065
:10037000002070478021416501207047B0B50446D8
:1003800000F0EEF8054640F20400C2F200000078EA
:10039000611C18BF044400BF00F0E2F8401BA042FB
:1003A000FAD3B0BD2DE9F04F82B000F13E4241F6E4
:1003B000004502F1FF77C4F2020508224FEAB72692
:1003C000A84208BF0722072E38BF4FEAB7224FF0D6
:1003D000010A002400274FF00008009208E000BF47
:1003E000023708F10108202F04F1040400F0B48062
:1003F0000E680AFA08F916EA090FF1D0D1F804A03C
:100400000AF0030BABF10106012E17D80322866810
:1004100002FA07FECA6826EA0E06BA403243826034
:100420004268CAF3001522EA090205FA08F54FEA04
:10043000480C6FEA0E062A4342600BE00322BA40E2
:10044000D643BBF1030FBC4604D1BC464FF0030BAF
:1004500022E000BFC2688D68324005FA0CF52A43DD
:10046000BBF1020FC26017D16FF0030202EA58021B
:10047000024404F01C030F25D2F820E005FA03FA29
:100480000D692EEA0A0E05FA03F343EA0E0313621E
:10049000D1F804A00AF0030B02680BFA0CF3324007
:1004A0001A431AF4403F4FF0010A026098D000222C
:1004B00043F644030192C4F202031A6843F6004E65
:1004C00042F480421A601A68C4F2010E02F48042BB
:1004D0000192019A28F003024FF6084C7244CFF6BD
:1004E000FF7C52F80C3004F00C060F25B540AB43EE
:1004F000009D05FA06F6334342F80C30DEF808207A
:100500004B6842EA090643F60C4CDD0258BF22EA6A
:100510000906CEF80860C4F2010CDCF800209D0248
:1005200042EA090658BF22EA0906CCF80060DEF864
:1005300004209D0342EA090658BF22EA0906CEF8C4
:100540000460DEF80020DB0342EA090658BF22EA15
:100550000906CEF8006043E702B0BDE8F08F000066
:1005600040F2AC00C2F200000068704740F20400A4
:1005700040F2AC01C2F20000C2F2000100780A6849
:10058000104408607047000080B543F60040C4F294
:100590000200016841F400710160016841F480616A
:1005A0000160016841F480710160032000F084F86B
:1005B0000F2000F005F800F027F8002080BD0000B3
:1005C00070B540F20406C2F2000640F20C01327827
:1005D000C2F200014FF47A730968B3FBF2F20446E9
:1005E000B1FBF2F1084600F041FB0F2C4FF0010582
:1005F00008D838B94FF0FF3021460022002500F01E
:100600002FF87460284670BD82B0002043F6400188
:100610000190C4F202014A6842F480424A604A688A
:1006200002F480420192019A0090086840F08050E4
:100630000860086800F080500090009802B0704791
:10064000002848BF704700F01F01012202FA01F1A3
:100650004EF200124009CEF2000242F8201070471C
:1006600010B54EF60C5CCEF2000CDCF80030C3F393
:10067000022E8EF00704042C28BF0424BEF10303CD
:100680004FF0FF3E0EFA04F438BF0023A143994017
:100690000EFA03F39A43114300F00F02043A624446
:1006A00009010C3200F16043B0F1FF3FC8BF03F510
:1006B0006442117010BD00004EF60C51CEF20001E4
:1006C0000A684FF6FF031A4060F30A2242F0806086
:1006D00040F0FD70086070472DE9F041002800F0FF
:1006E0008B8043F60808C4F202080446D8F8F803E1
:1006F0000D4600F00700884207D288F8F853D8F872
:10070000F80300F00700A84276D12068810717D5CA
:10071000410705D5D8F8001041F4E051C8F80010A1
:10072000010705D5D8F8001041F46041C8F8001061
:10073000D8F80010A26821F0F0011143C8F80010A9
:10074000C0073FD1D8F8F80300F00700A84207D946
:1007500088F8F853D8F8F80300F00700A8424BD106
:100760002068410707D5D8F80010E26821F4E0516D
:100770001143C8F80010000708D5D8F80000216917
:1007800020F4604040EAC100C8F8000000F07CF8A6
:10079000D8F8001041F6F862C1F30311C0F6000268
:1007A000515C40F20C0220FA01F140F20800C2F262
:1007B00000000068C2F200021160FFF701FF002094
:1007C000BDE8F0816068811E022907D258F8081C34
:1007D00089015CBF0120BDE8F08111E0012807D14B
:1007E00058F8081C89035CBF0120BDE8F08107E0D0
:1007F00058F8081C890703D40120BDE8F08100BF28
:10080000D8F8001021F003010843C8F80000FFF7F2
:10081000A7FE064641F28837D8F80000616800F06C
:100820000C00B0EB810F8DD0FFF79AFE801BB84211
:10083000F2D90320BDE8F08140F20C0043F6080134
:10084000C2F20000C4F202010068096841F60872B1
:10085000C1F38221C0F60002515CC840704700001D
:1008600040F20C0043F60801C2F20000C4F202019B
:100870000068096841F60872C1F34231C0F600020F
:10088000515CC8407047000010B543F60404C4F240
:100890000204606800F00C0142F200400829C0F236
:1008A000F40007D0042918BF10BD41F20020C0F2A7
:1008B0007A0010BD216801F03F02216823684902D7
:1008C000C3F3881106D4A1FB00010023FFF778FCD5
:1008D00007E000BF41F20020C0F27A004843B0FBBD
:1008E000F2F021680222C1F3014102EB4101B0FBA9
:1008F000F1F010BD2DE9F04182B000286AD0044625
:10090000007843F60006C007C4F202060BD0B068B8
:1009100000F00C00042840F0A1803068800302D56C
:100920006068002856D0207880071AD5B06810F08B
:100930000C0F09D0B06800F00C00082840F0A88027
:100940007068400200F1A4803068800702D5E0683A
:1009500001283FD13068216920F0F80040EAC10049
:1009600030602078000739D4207840074ED4A5693C
:100970005DB3B06800F00C00082840F0BD80012D88
:1009800028D07068E16900F480028A4222D1216A8D
:1009900000F03F028A421DD147F6C071626A0140F1
:1009A000B1EB821F16D1A26A0023CFF6FF7303EBCF
:1009B000C23200F440316FF30F0291420AD1E16A72
:1009C00000F07060B0EB016F04D1002002B0BDE810
:1009D000F08100BF012002B0BDE8F081606900280D
:1009E00040F20000C4F2472076D00121C0F8801EFA
:1009F000FFF7B6FD054600BF706F8007B4D4FFF760
:100A0000AFFD401B0228F7D9DDE000BF306C10F0CD
:100A100080580AD100200190306C40F08050306442
:100A2000306C00F080500190019847F20007C4F24A
:100A300000073868C00541D4386840F480703860D9
:100A4000FFF78EFD054600BF3868C00536D4FFF7B6
:100A500087FD401B0228F7D9B5E000BFB06800F061
:100A60000C00082803D1706840023FF556AF60685B
:100A7000B0F5803F07D0B0F5A02F40F08D803068F2
:100A800040F480203060306840F4803030608DE089
:100A9000E068002852D00020C4F247200121016004
:100AA000FFF75EFD054600BF306880073FF552AF97
:100AB000FFF756FD401B0228F6D984E0A068012804
:100AC00005D005284ED1306F40F004003067306FFC
:100AD00040F0010030674FE00021C0F8801EFFF7B2
:100AE0003FFD0546706F80077FF53EAFFFF738FD8D
:100AF000401B0228F6D966E00027C4F247270020F1
:100B00003866FFF72DFD022D05460BD130688001B8
:100B10005ED5FFF725FD401B02284FF00300F5D9F5
:100B200054E700BF306880017FF54FAFFFF718FD35
:100B3000401B02284FF00300F4D947E70020C4F21D
:100B4000472000210160FFF70BFD05463068800754
:100B50007FF507AFFFF704FD401B02284FF00300AD
:100B6000F4D933E7316F002821F001013167316F8B
:100B700021F0040131674DD0FFF7F2FC054641F248
:100B8000883700BF306F800756D4FFF7E9FC401B61
:100B9000B842F7D917E000BF3168002821F480314E
:100BA0003160316821F4802131604FD0FFF7D8FCEB
:100BB000054600BF306880033FF5B5AEFFF7D0FCB7
:100BC000401B6428F6D9032002B0BDE8F08100BFC5
:100BD00004F11C052FCD08430021CFF6FF7140EA38
:100BE000821001EBC3316FF30F0140EA0560084347
:100BF000706001203866FFF7B3FC0446306880015E
:100C00003FF5E3AEFFF7ACFC001B02284FF00300FA
:100C1000F4D9DBE6FFF7A4FC054641F2883700BFB4
:100C2000306F800708D5FFF79BFC401BB8424FF0A0
:100C30000300F5D9CAE600BFB8F1000F7FF497AE04
:100C4000306C20F08050306491E600BFFFF788FCE4
:100C5000054600BF306880037FF565AEFFF780FC76
:100C6000401B64284FF00300F4D9AFE6411E00207A
:100C7000B0EB116F1CBF012070474EF21002CEF294
:100C8000000251604EF62351CEF20001F0230B70AA
:100C900007219060116070477047000070470000A6
:100CA000B0B582B0044600680168C368426901F0CB
:100CB0002F05202D03F0200506D12DB1204602B0CE
:100CC000BDE8B04000F07EBD5FEA017C1EBF02F0CF
:100CD000010E03F4907212EB0E0255D1226B012A21
:100CE00005D111F0100218BF13F0100236D10A0618
:100CF00022D513F080021FD094F83D10212941D154
:100D0000A168B1F5805F03D12169002900F06C82F0
:100D1000216A4A1C226209784160E18C01390A0487
:100D2000E1842FD1C16821F08001C160C16841F028
:100D30004001C16002B0B0BD490623D513F04001A7
:100D400020D0C16821F04001C1602021204684F8F4
:100D50003D1002B0BDE8B04000F080BC0021019120
:100D6000016801914168019101994169490600F1C9
:100D70008B80A18DE28DE38D002B1CBF891A5FEA69
:100D800001420CD102B0B0BDCA0718BF13F4807283
:100D900040F032814A0700F135813AE1206850E89D
:100DA000030F226820F4907042E80303DBB120684F
:100DB00050E8030F226820F4907042E8030393B1D7
:100DC000206850E8030F226820F4907042E8030383
:100DD0004BB1206850E8030F226820F4907042E87D
:100DE0000303002BDAD1206850E8050F226820F0B9
:100DF000010042E80503DBB1206850E8050F2268D6
:100E000020F0010042E8050393B1206850E8050F87
:100E1000226820F0010042E805034BB1206850E849
:100E2000050F226820F0010042E80503002BDAD10B
:100E3000202084F83E0000202063206850E8030F43
:100E4000226820F0100042E80303DBB1206850E87C
:100E5000030F226820F0100042E8030393B12068DA
:100E600050E8030F226820F0100042E803034BB162
:100E7000206850E8030F226820F0100042E80303C6
:100E8000002BDAD189B2B0E0A26B11684B689DB239
:100E9000002D3FF477AFA18D8D42BFF473AFE38592
:100EA000D269B2F5807F00F09D8050E8030F216881
:100EB00020F4807041E80302E2B1206850E8030F9B
:100EC000216820F4807041E803029AB1206850E85C
:100ED000030F216820F4807041E8030252B12068BA
:100EE00050E8030F216820F4807041E803020AB142
:100EF0002068DAE7206850E8050F216820F001003B
:100F000041E80502DAB1206850E8050F216820F0B9
:100F1000010041E8050292B1206850E8050F216800
:100F200020F0010041E805024AB1206850E8050FB1
:100F3000216820F0010041E80502002ADAD120688A
:100F400050E8050F216820F0400041E80502DAB1C1
:100F5000206850E8050F216820F0400041E80502B4
:100F600092B1206850E8050F216820F0400041E868
:100F700005024AB1206850E8050F216820F04000C2
:100F800041E80502002ADAD1202084F83E00002042
:100F90002063206850E8030F216820F0100041E82A
:100FA0000302DAB1206850E8030F216820F0100036
:100FB00041E8030292B1206850E8030F216820F055
:100FC000100041E803024AB1206850E8030F21688D
:100FD00020F0100041E80302002ADAD1A06BFFF7ED
:100FE00071F9A18DE08D081A81B2204602B0BDE8EA
:100FF000B040FFF751BE00BF226C42F001022264F4
:101000004A0706D5BEF1000F03D0226C42F002025F
:1010100022648A0706D5BEF1000F03D0226C42F08D
:1010200004022264BCF1000F06D555EA0E0203D07B
:10103000226C42F008022264226C002A3FF4A2AE25
:1010400011F0200118BF002D03D0204600F0BAFB9C
:1010500020684169226C01F0400102F00802891801
:1010600000F0A28050E8030F216820F4907041E85E
:101070000302C2B3206850E8030F216820F4907087
:1010800041E803027AB3206850E8030F216820F496
:10109000907041E8030232B3206850E8030F2168E2
:1010A00020F4907041E80302EAB12068DAE700BF5B
:1010B000206850E8050F216820F0010041E8050292
:1010C000DAB1206850E8050F216820F0010041E8FE
:1010D000050292B1206850E8050F216820F0010058
:1010E00041E805024AB1206850E8050F216820F068
:1010F000010041E80502002ADAD1206B012824D141
:10110000206850E8030F216820F0100041E8030236
:10111000DAB1206850E8030F216820F0100041E8A0
:10112000030292B1206850E8030F216820F01000FC
:1011300041E803024AB1206850E8030F216820F01B
:10114000100041E80302002ADAD1202084F83E0092
:10115000002020632068416949063FD550E8050F0B
:10116000216820F0400041E805022AB3206850E8D9
:10117000050F216820F0400041E80502E2B1206837
:1011800050E8050F216820F0400041E805029AB1BF
:10119000206850E8050F216820F0400041E8050272
:1011A00052B12068DAE700BF2046FFF777FD002044
:1011B000206402B0B0BD00BFA06B78B141F2B9713C
:1011C000C0F600010165FFF7C7F800283FF4DAAD6B
:1011D000A06B016D02B0BDE8B0400847204602B0E8
:1011E000BDE8B040FFF75ABD216A31F8022B6FF31A
:1011F0005F224260216290E5002804BF0120704711
:1012000010B5044690F83D0028B9002084F83C0051
:10121000204600F021F8242084F83D002068C168B1
:1012200021F40051C160204600F04CFB20680169A8
:1012300021F490410161416921F02A014161C168B5
:1012400041F40051C16000202021206484F83D1049
:1012500084F83E1010BD000080B586B0016841F2F0
:101260000000C4F20100814202D006B080BD00BF80
:10127000002143F630020191C4F20202536900F5E5
:10128000704043F010035361536903F0100301935E
:10129000019B0191136843F001031360126802F08F
:1012A00001020192019A4FF4C06201920222CDE93B
:1012B0000221032104910721059101A9FFF772F88A
:1012C000252000210022FFF7CBF92520FFF7B8F9F0
:1012D00006B080BD90F83E30202B0BD100294FF096
:1012E000010318BF002A01D11846704790F83C301E
:1012F000012B01D102207047002303638162222168
:101300008285C285036480F83E100269016880F816
:101310003C301AB1C86840F48070C8604869002346
:1013200040F001004861C86840F02000C8601846DD
:101330007047000070B50646006841F20001C4F233
:101340000101884239D140F2AA00C2F200000078BF
:10135000202827D140F21005C2F20005E8680128D4
:1013600017DBAA68012030212A4412F8013C2C69BD
:10137000303B03FB004300EB80002B6102F8011CB3
:10138000D5E902324000013AEA60A3F10102AA6005
:10139000EADC296900240EA0AC60EC6000F0D0FC0F
:1013A0002C610AE040F21001C2F200018A68531C6D
:1013B0008B608854C8680130C86040F2AA01C2F24C
:1013C000000130460122BDE87040FFF783BF00BF37
:1013D000696E7075743A2025640A00002DE9F043A7
:1013E00081B0044690F83D0020280DD10F46002919
:1013F0004FF0010000F0DD801646002A00F0D98091
:1014000094F83C00012803D1022001B0BDE8F0832C
:10141000012084F83C004FF0000921201D46C4F84B
:10142000409084F83D00FFF79BF8A684E684A1680D
:101430000646B1F5805F07D1206900281CBF3846F9
:101440004F46B846074601E04FF0000884F83C904C
:10145000E18C2068002900F08B8005F101090AE089
:1014600047B317F8011B4160E18C0139E184E18C3D
:10147000002900F07D8001680906F1D4B9F1000F60
:101480000AD0EDB1FFF76CF8801BA84218D820688D
:1014900001680906F6D5E3E701680906E0D40168AA
:1014A00009065CBF01685FEA0161D9D401680906D9
:1014B000F2D5D5E738F8021B00276FF35F21D2E79A
:1014C000206850E8030F216820F4D07041E803023F
:1014D000BAB3206850E8030F216820F4D07041E8C7
:1014E000030272B3206850E8030F216820F4D07023
:1014F00041E803022AB3206850E8030F216820F472
:10150000D07041E80302002ADAD11AE0206850E8DE
:10151000050F216820F0010041E80502DAB12068DA
:1015200050E8050F216820F0010041E8050292B162
:10153000206850E8050F216820F0010041E805020D
:101540004AB1206850E8050F216820F0010041E809
:101550000502002ADAD1202084F83D0084F83E00FC
:10156000002084F83C00032001B0BDE8F08300BFF8
:101570000168490619D4FDB1691C0DD101684906FD
:1015800013D4016849065CBF01685FEA41610CD46D
:1015900001684906F2D508E0FEF7E2FF801BA84289
:1015A0000AD8206800684006F6D5202084F83D005F
:1015B000002001B0BDE8F083206850E8030F2168E7
:1015C00020F4D07041E80302E2B3206850E8030F32
:1015D000216820F4D07041E803029AB3206850E8F3
:1015E000030F216820F4D07041E8030252B3206851
:1015F00050E8030F216820F4D07041E80302002A6C
:10160000DAD11FE0206850E8050F216820F00100C2
:1016100041E80502002A9ED0206850E8050F2168A5
:1016200020F0010041E80502002A3FF494AF206851
:1016300050E8050F216820F0010041E80502002A6A
:101640003FF489AF206850E8050F216820F00100C1
:1016500041E80502002AD5D17DE70000704700006F
:10166000FEE7000082B0002043F630010190C4F292
:1016700002010A6842F080020A600A6802F08002F1
:101680000192019A0090086840F001000860086823
:1016900000F001000090009802B0704710B540F2D1
:1016A000640441F20000C2F20004C4F201004FF4ED
:1016B000612100220C2384E807002046C4E90322AC
:1016C000C4E90532E261FFF797FD002818BFFEF775
:1016D000F3FD2068C16841F02001C16010BD000029
:1016E000FEE70000FEE700007047000070470000C2
:1016F000FEF73CBFB0B592B0002443F64000CDE900
:101700000A44CDE908440594CDE90344CDE90144F8
:101710000094C4F202000168022541F0805101608A
:10172000006800F080500090009847F2000000949C
:10173000C4F20000016841F4804101600068A82102
:1017400000F4804000900098012006904FF4803013
:1017500007904FF480000D9004200E90119006A881
:101760000C95CDE90F15FFF7C5F828B1EFF3108000
:1017700072B600BFFEE700BF0F20CDE901054FF4B0
:10178000A05004904FF48050059001A805210394C7
:10179000FEF7A2FF20B1EFF3108072B6FEE700BFA4
:1017A00012B0B0BD4EF68850CEF20000016841F490
:1017B0007001016070470000806B0021C185C18409
:1017C000FFF76CBA81B090F83E10222920D18368CF
:1017D000B3F5805F08D10169002965D000F12801C7
:1017E0000A6803685B680AE0014651F8282F13B9BC
:1017F0000369002BF5D003685B6803F07F03137067
:101800000A6801320A60C18D01390A04C18501D01C
:1018100001B070470168CA6822F02002CA60CA6835
:1018200022F48072CA604A6922F001024A612022D1
:1018300080F83E20026B012A40D10022026300BFE3
:1018400051E8031F026821F0100142E80313016808
:10185000DBB151E8031F026821F0100142E80313D5
:10186000016893B151E8031F026821F0100142E8BA
:10187000031301684BB151E8031F026821F0100106
:1018800042E803130168002BDAD10A68D20606D5B4
:10189000002200920A680092496800910099818DA7
:1018A00001B0FFF7F9B900BF0168826A49686FF3B8
:1018B0005F2122F8021B8262A5E700BF01B0FFF79B
:1018C00039BD000010B504460068D4E902C223699E
:1018D000016921F4405111430161626943EA0C013D
:1018E000E3691143C268194349F20C639A431143F7
:1018F000C1604169A26921F4407141F20043114382
:1019000040F48062C4F201039A42416102D1FEF7C1
:10191000A7FF01E0FEF790FFE16963681922B1F5C6
:10192000004FA0FB02011FD15A00DB0FFEF748FC5D
:1019300048F21F51C5F2EB11A0FB01235A096FF0C9
:10194000630302FB0300322303EBC000A0FB010191
:101950004FF4F87000EA111000EB0210C1F34211CD
:1019600008442168886010BD9A009B0FFEF728FC90
:1019700048F21F51C5F2EB11A0FB01235A096FF089
:10198000630302FB0300322303EB0010A0FB010101
:10199000F02000EA511000EB0210C1F3431108449B
:1019A0002168886010BD000010B540F26404C2F2E6
:1019B00000042046FFF774F921680868800601D406
:1019C00010BD00BF6FF0200240F25F0448680A605B
:1019D000C2F200042178062920D329293CD84AF6EE
:1019E000AB22CAF6AA22A1FB02235A0802EB42024A
:1019F0008A1A02F00303012B48D0002A56D1A2789C
:101A000040F2300302EB4202C2F2000394F801C03C
:101A10001A44C0B2D080013157E000BF052988BF09
:101A200010BDDFE801F00355697B8597C1B25429E9
:101A300040F0A48040F23001C2F2000162780870E8
:101A400041F6107182F05400C0F60001085C0121DB
:101A50002170607010BD00BF2A390429B0D8DFE8BA
:101A600001F003A9B3C5910040F23001C2F20001B8
:101A7000C0B26278488541F610715040C0F600014E
:101A8000085C2B212170607010BD00BFA27840F26D
:101A9000300302EB4202C2F200031A44D38894F8E6
:101AA00001C003EB0023D3800DE000BFA27840F219
:101AB000300302EB420EC2F2000394F801C07344FB
:101AC00001321872A2700131C0B280EA0C0099E0B4
:101AD000C1B22C2952D140F23001C2F20001627829
:101AE000487041F6107182F02C00C0F60001085CCD
:101AF00002212170607010BD40F23001C2F200017D
:101B0000C0B26278488041F610715040C0F60001C2
:101B1000085C03212170607010BD00BF40F23001ED
:101B2000C2F200014A8802EB00224A80042166E0EA
:101B300040F23001C2F20001C0B26278888041F602
:101B400010715040C0F60001085C052121706070E2
:101B500010BD00BF40F23001C2F200018A8802EBE2
:101B600000228A806278C0B2504041F61072C0F6FE
:101B70000002105C06212170607010BD00202080E2
:101B800010BD00BF6278C1B240F23003C2F2000360
:101B90008A4283F82E0008D100F03EF840F2A800F7
:101BA000C2F2000001880131018000202080A07075
:101BB00010BD00BF40F23001C2F200014A8D02EBBD
:101BC00000224A852C211AE040F23001C2F20001C5
:101BD000C0B26278888541F610715040C0F60001AD
:101BE000085C2D212170607010BD00BF40F23001F3
:101BF000C2F200018A8D02EB00228A852E216278D2
:101C0000C0B2504041F61072C0F60002105C217064
:101C1000607010BDFEE7000040F2280CC2F2000C1C
:101C2000BCF80E30BCF80210DCF804202BB10131F6
:101C30001A44ACF80210CCF80420BCF811302BB1D7
:101C400001311A44ACF80210CCF80420BCF814306E
:101C50002BB101311A44ACF80210CCF80420BCF8C6
:101C600017302BB101311A44ACF80210CCF8042023
:101C7000BCF81A302BB101311A44ACF80210CCF880
:101C80000420BCF81D302BB101311A44ACF802100D
:101C9000CCF804209CF800300133D8B232288CF8FC
:101CA000003018BF704788B2B2FBF0F040F262011A
:101CB000C2F2000108800020CCF80400ACF8020059
:101CC0008CF800007047000080B582B0019040F2AF
:101CD0006400C2F2000001A901224FF47A73FFF7F9
:101CE0007DFB019802B080BDFEF74EFCFFF702FDC0
:101CF000FFF7B8FCFFF7D2FC07A000F0EBF840F2CA
:101D00006205C2F200050BA42988204600F018F8ED
:101D10003220FEF733FBF7E7696E70757420666F4B
:101D2000726D61743A20646174612B5B73706163DE
:101D3000655D0000312D2D25646D6D0A00000000E9
:101D40000FB4054B10B503A9044A029800F018F827
:101D500010BC5DF814FB0000C91C00080000002046
:101D600002E008C8121F08C1002AFAD17047704764
:101D7000002001E001C1121F002AFBD170470000C2
:101D80002DE9FF4F89B09B460446002506E0252833
:101D90000BD05A460B999047641C6D1C2078002884
:101DA000F5D10DB02846BDE8F08F0027B8460122D6
:101DB000474900E0074314F8013F203B02FA03F0D3
:101DC0000842F7D120782E2819D114F8010F47F0D6
:101DD00004072A280ED06FF02F022078A0F13001DE
:101DE00009290CD808EB880102EB410100EB01083E
:101DF000641CF2E70A98641C50F8048B0A9020785F
:101E00000028CED0642808D0692806D075281ED0B6
:101E10005A460B9990476D1C58E00A994FF00A09F1
:101E200001C90A91002802DA40422D2102E0390559
:101E300004D52B218DF82010012103E0F90704D0EF
:101E40002021F7E78A4608AE0DE00021FAE70A995B
:101E50004FF00A0901C90A91F7E74946FEF7E1F98F
:101E6000303106F8011D0028F7D1ADEB060000F176
:101E70002009780701D44FF00108C84502DDA8EB1E
:101E8000090000E000208046002706E008A85A4626
:101E9000C05D0B9990476D1C7F1C5745F6DB04E035
:101EA00030205A460B9990476D1CB8F10001A8F1FB
:101EB0000108F5DC05E016F8010B5A460B9990472E
:101EC0006D1CB9F10001A9F10109F4DC641C65E79E
:101ED0000928010010B5044601E0FFF7F5FE14F8EB
:101EE000010B04490028F8D1BDE810400A20FFF793
:101EF000EBBE000000000020000000000000000019
:101F0000010203040607080900000000010203049F
:101F1000004D9AD77934E3AEF2BF68258BC6115CC9
:101F2000A9E4337ED09D4A075B16C18C226FB8F5B9
:101F30001F5285C8662BFCB1EDA0773A94D90E43A9
:101F4000B6FB2C61CF8255184409DE933D70A7EA99
:101F50003E73A4E9470ADD90CC81561BB5F82F6289
:101F600097DA0D40EEA374396528FFB21C5186CB79
:101F7000216CBBF65815C28FD39E4904AAE7307D69
:101F800088C5125FF1BC6B267A37E0AD034E99D459
:101F90007C31E6AB05489FD28EC31459F7BA6D2049
:101FA000D5984F02ACE1367B276ABDF05E13C48939
:101FB000632EF9B41A5780CD91DC0B46E8A5723F29
:101FC000CA87501DB3FE29643875A2EF410CDB9619
:101FD000420FD8953B76A1ECB0FD2A67C984531E09
:101FE000EBA6713C92DF0845195483CE602DFAB7F9
:101FF0005D10C78A2469BEF3AFE23578D69B4C01E9
:10200000F4B96E238DC0175A064B9CD17F32E5A8D8
:10201000302000080000002028000000601D00089B
:10202000582000082800002088040000701D0008C7
:102030000000000001000000100000000024F40077
:102040003030303030300000000000000000000070
:08205000000000000000000088
:040000050800018965
:00000001FF
