:020000040800F2
:10000000B00400209D010008C5160008391600083C
:10001000C1160008B1020008ED1B00080000000036
:10002000000000000000000000000000CD160008E5
:10003000B502000800000000C9160008D11600082B
:10004000B7010008B7010008B7010008B7010008B0
:10005000B7010008B7010008B7010008B7010008A0
:10006000B7010008B7010008B7010008B701000890
:10007000B7010008B7010008B7010008B701000880
:10008000B7010008B7010008B7010008B701000870
:10009000B7010008B7010008B7010008B701000860
:1000A000B7010008B7010008B7010008B701000850
:1000B000B7010008B7010008B7010008B701000840
:1000C000B7010008B7010008B7010008B701000830
:1000D000B701000895190008B7010008B70100082A
:1000E000B7010008B7010008B7010008B701000810
:1000F000B7010008B7010008B7010008B701000800
:10010000B7010008B7010008B7010008B7010008EF
:10011000B7010008B7010008B7010008B7010008DF
:10012000B7010008B7010008B7010008B7010008CF
:10013000B7010008B7010008B7010008B7010008BF
:10014000B7010008B7010008B7010008B7010008AF
:10015000B7010008B7010008B7010008B70100089F
:10016000B7010008B7010008B7010008B70100088F
:10017000B7010008B7010008B7010008000000003F
:10018000B7010008B7010008DFF80CD000F07EF8D6
:1001900000480047311D0008B00400200648804791
:1001A00006480047FEE7FEE7FEE7FEE7FEE7FEE75C
:1001B000FEE7FEE7FEE7FEE7851700088901000875
:1001C0002DE9F05F0546002092469B46884606468C
:1001D000814640241BE0284641464746224600F01F
:1001E00045F853465A46C01A914110D31146184655
:1001F000224600F02CF82D1A67EB01084F462246E4
:100200000120002100F023F817EB00094E41201EC9
:10021000A4F10104DFDC484631462A464346BDE8E6
:10022000F09F30B50B46014600202022012409E052
:1002300021FA02F59D4205D303FA02F5491B04FA9F
:1002400002F52844151EA2F10102F1DC30BD202A7E
:1002500004DB203A00FA02F1002070479140C2F11D
:10026000200320FA03F3194390407047202A04DB4F
:10027000203A21FA02F00021704721FA02F3D0401F
:10028000C2F120029140084319467047064C074DC1
:1002900006E0E06840F0010394E807009847103456
:1002A000AC42F6D3FFF774FF38200008582000084E
:1002B000FEE7000070470000EFF3108072B600BF49
:1002C000FEE7000070B5866D044600F029F994F849
:1002D0003510022928D105462068216C026822F0D9
:1002E00016020260426922F08002426109B9A16CE3
:1002F00019B1016821F008010160016821F00101D4
:10030000016000BF20680068C00715D000F008F940
:10031000401B0628F6D320206065032084F83500B2
:10032000002184F8341070BD802060650120002118
:1003300084F8341070BD00BFE06D3F2101FA00F079
:10034000B060012084F835000020002184F83410CA
:1003500070BD000090F83510022909D1052180F800
:1003600035100068016821F001010160002070472C
:1003700080214165012070472DE9F04F82B000F1E6
:100380003E4241F6004502F1FF77C4F20205082221
:1003900043F6004E4FEAB726A84208BF0722C4F230
:1003A000010E072E38BF4FEAB7220125002600278D
:1003B0004FF00008009208E008F101080437B8F196
:1003C000100F06F1020600F0A7800C6805FA08F984
:1003D00014EA090FF0D0D1F804B003220BF0030C9B
:1003E000ACF10104B240012C6FEA020A10D8826815
:1003F000CC6802EA0A02B440224382604268CBF32E
:10040000001422EA090204FA08F42243426005E0DB
:10041000BCF1030F02D14FF0030C20E0C2688C68DE
:1004200002EA0A02B4402243BCF1020FC26016D1B4
:100430006FF0030202EA58020244D2F820C007F02B
:100440001C050F230C69AB402CEA030304FA05F5E5
:100450002B431362D1F804B001250BF0030C0268A2
:100460000CFA06F302EA0A021A431BF4403F026048
:10047000A2D0002243F644030192C4F202031A6898
:100480004FF6084C42F480421A601A68CFF6FF7C9F
:1004900002F480420192019A28F00302724452F859
:1004A0000C3007F00C050F24AC40A343009C04FA69
:1004B00005F52B4342F80C30DEF808204B6842EA81
:1004C000090543F60C4CDC0258BF22EA0905CEF8B8
:1004D0000850C4F2010CDCF800209C0242EA090535
:1004E00058BF22EA0905CCF80050DEF804209C032E
:1004F00042EA090558BF22EA0905CEF80450DEF8A1
:100500000020DB0342EA090558BF22EA0905CEF8BC
:100510000050012550E700BF02B0BDE8F08F000099
:1005200040F2AC00C2F200000068704740F20400E4
:1005300040F2AC01C2F20000C2F2000100780A6889
:10054000104408607047000080B543F60040C4F2D4
:100550000200016841F400710160016841F48061AA
:100560000160016841F480710160032000F088F8A7
:100570000F2000F005F800F027F8002080BD0000F3
:1005800070B540F20406C2F2000640F20C01327867
:10059000C2F200014FF47A730968B3FBF2F2044629
:1005A000B1FBF2F1084600F043FB0F2C4FF00105C0
:1005B00008D838B94FF0FF3021460022002500F05E
:1005C00033F87460284670BD82B0002043F64001C5
:1005D0000190C4F202014A6842F480424A604A68CB
:1005E00002F480420192019A0090086840F0805025
:1005F0000860086800F080500090009802B07047D2
:10060000002848BF7047C1B200F01F00012202FA63
:1006100000F04EF20012CEF2000242EAD10121F0C7
:10062000030108607047000010B54EF60C5CCEF276
:10063000000CDCF80030C3F3022E8EF00704042C0B
:1006400028BF0424BEF103034FF0FF3E0EFA04F46A
:1006500038BF0023A14399400EFA03F39A43114394
:1006600000F00F0200F160430901043A03F564430E
:100670006244002848BF02F10C03197010BD00004D
:100680004EF60C51CEF200010A684FF6FF031A40F5
:1006900060F30A2242F0806040F0FD70086070470D
:1006A0002DE9F041002800F08B8043F60808C4F2E1
:1006B00002080446D8F8F8030D4600F00700884207
:1006C00007D288F8F853D8F8F80300F00700A842DA
:1006D00076D12068810717D5410705D5D8F80010D5
:1006E00041F4E051C8F80010010705D5D8F8001012
:1006F00041F46041C8F80010D8F80010A26821F059
:10070000F0011143C8F80010C0073FD1D8F8F80332
:1007100000F00700A84207D988F8F853D8F8F80382
:1007200000F00700A8424BD12068410707D5D8F850
:100730000010E26821F4E0511143C8F800100007EE
:1007400008D5D8F80000216920F4604040EAC100D3
:10075000C8F8000000F07CF8D8F8001041F62072CC
:10076000C1F30311C0F60002515C40F20C0220FA02
:1007700001F140F20800C2F200000068C2F200027B
:100780001160FFF7FDFE0020BDE8F0816068811E6A
:10079000022907D258F8081C89015CBF0120BDE876
:1007A000F08111E0012807D158F8081C89035CBFCB
:1007B0000120BDE8F08107E058F8081C890703D440
:1007C0000120BDE8F08100BFD8F8001021F003013E
:1007D0000843C8F80000FFF7A3FE064641F2883739
:1007E000D8F80000616800F00C00B0EB810F8DD0EC
:1007F000FFF796FE801BB842F2D90320BDE8F081D6
:1008000040F20C0043F60801C2F20000C4F20201FB
:100810000068096841F63072C1F38221C0F6000217
:10082000515CC8407047000040F20C0043F60801DC
:10083000C2F20000C4F202010068096841F6307299
:10084000C1F34231C0F60002515CC840704700005D
:1008500010B543F60404C4F20204606800F00C0111
:1008600042F200400829C0F2F40007D0042918BF62
:1008700010BD41F20020C0F27A0010BD216801F0E5
:100880003F02216823684902C3F3881106D4A1FB03
:1008900000010023FFF794FC07E000BF41F20020B5
:1008A000C0F27A004843B0FBF2F021680222C1F3A3
:1008B000014102EB4101B0FBF1F010BD2DE9F04127
:1008C00082B0002868D00446007843F60006C007CE
:1008D000C4F202060BD0B06800F00C00042840F00F
:1008E0009F803068800302D56068002854D020784B
:1008F00080071AD5B06810F00C0F09D0B06800F06E
:100900000C00082840F0A6807068400200F1A28028
:100910003068800702D5E06801283DD13068216940
:1009200020F0F80040EAC10030602078000737D49A
:10093000207840074CD4A56955B3B06800F00C008E
:10094000082840F0BB80012D26D07068E16900F4D2
:1009500080028A4220D1216A00F03F028A421BD1E4
:1009600047F6C071626A0140B1EB821F14D1A16ADF
:100970004FF6FF73C903994300F44032A1F580316B
:100980008A4209D1E16A00F07060B0EB016F03D1D7
:10099000002002B0BDE8F081012002B0BDE8F08186
:1009A0006069002840F20000C4F2472076D001219F
:1009B000C0F8801EFFF7B4FD054600BF706F8007CA
:1009C000B6D4FFF7ADFD401B0228F7D9DDE000BF2C
:1009D000306C10F080580AD100200190306C40F04B
:1009E00080503064306C00F080500190019847F2E4
:1009F0000007C4F200073868C00541D4386840F4E5
:100A000080703860FFF78CFD054600BF3868C00570
:100A100036D4FFF785FD401B0228F7D9B5E000BFAB
:100A2000B06800F00C00082803D1706840023FF560
:100A300058AF6068B0F5803F07D0B0F5A02F40F008
:100A40008D80306840F480203060306840F4803021
:100A500030608DE0E068002852D00020C4F24720CA
:100A600001210160FFF75CFD054600BF306880078B
:100A70003FF554AFFFF754FD401B0228F6D984E040
:100A8000A068012805D005284ED1306F40F0040041
:100A90003067306F40F0010030674FE00021C0F850
:100AA000801EFFF73DFD0546706F80077FF540AF64
:100AB000FFF736FD401B0228F6D966E00027C4F296
:100AC000472700203866FFF72BFD022D05460BD186
:100AD000306880015ED5FFF723FD401B02284FF0F0
:100AE0000300F5D955E700BF306880017FF550AFAE
:100AF000FFF716FD401B02284FF00300F4D948E72A
:100B00000020C4F2472000210160FFF709FD0546DF
:100B1000306880077FF509AFFFF702FD401B022810
:100B20004FF00300F4D934E7316F002821F00101C0
:100B30003167316F21F0040131674DD0FFF7F0FCD0
:100B4000054641F2883700BF306F800756D4FFF763
:100B5000E7FC401BB842F7D917E000BF3168002816
:100B600021F480313160316821F4802131604FD02F
:100B7000FFF7D6FC054600BF306880033FF5B7AEEF
:100B8000FFF7CEFC401B6428F6D9032002B0BDE875
:100B9000F08100BF04F11C052FCD084340EA82100C
:100BA000D9034FF6FF729143A1F5803140EA056009
:100BB0000843706001203866FFF7B2FC044600BFAE
:100BC000306880013FF5E4AEFFF7AAFC001B022865
:100BD0004FF00300F4D9DCE6FFF7A2FC054641F232
:100BE000883700BF306F800708D5FFF799FC401B9E
:100BF000B8424FF00300F5D9CBE600BFB8F1000FC3
:100C00007FF499AE306C20F08050306493E600BFE2
:100C1000FFF786FC054600BF306880037FF567AEAE
:100C2000FFF77EFC401B64284FF00300F4D9B0E6C8
:100C3000411E0020B0EB116F1CBF012070474EF227
:100C40001002CEF2000251604EF62351CEF20001A6
:100C5000F0230B700721906011607047704700000F
:100C600070470000B0B582B0044600680168C368F0
:100C7000426901F02F05202D03F0200506D12DB18A
:100C8000204602B0BDE8B04000F08CBD5FEA017CB8
:100C90001EBF02F0010E03F4907212EB0E0253D14C
:100CA000226B012A05D111F0100218BF13F01002B7
:100CB00036D10A0622D513F080021FD094F83D10D9
:100CC00021293FD1A168B1F5805F03D121690029B5
:100CD00000F07282216A4A1C226209784160E18C2C
:100CE00001390A04E1842DD1C16821F08001C1607D
:100CF000C16841F04001C16002B0B0BD490621D5D4
:100D000013F040011ED0C16821F04001C1602021D4
:100D1000204684F83D1002B0BDE8B04000F08ABC27
:100D20000021019101680191416801910199406997
:100D3000400613D4A08DE18DE28D002A18BF8842B1
:100D400040F0BE8102B0B0BDCA0718BF13F4807274
:100D500040F0BA804A0700F1BD80C2E0A16B08688C
:100D6000426893B2002BEDD0A08D8342EAD2E28597
:100D7000C969B1F5807F00F09D80206850E8030FBD
:100D8000216820F4807041E80302DAB1206850E85D
:100D9000030F216820F4807041E8030292B12068BB
:100DA00050E8030F216820F4807041E803024AB143
:100DB000206850E8030F216820F4807041E80302A6
:100DC000002ADAD1206850E8050F216820F00100E0
:100DD00041E80502DAB1206850E8050F216820F0EB
:100DE000010041E8050292B1206850E8050F216832
:100DF00020F0010041E805024AB1206850E8050FE3
:100E0000216820F0010041E80502002ADAD12068BB
:100E100050E8050F216820F0400041E80502DAB1F2
:100E2000206850E8050F216820F0400041E80502E5
:100E300092B1206850E8050F216820F0400041E899
:100E400005024AB1206850E8050F216820F04000F3
:100E500041E80502002ADAD1202084F83E00002073
:100E60002063206850E8030F216820F0100041E85B
:100E70000302DAB1206850E8030F216820F0100067
:100E800041E8030292B1206850E8030F216820F086
:100E9000100041E803024AB1206850E8030F2168BE
:100EA00020F0100041E80302002ADAD1A06BFFF71E
:100EB00009FAA08DE18D401A81B2204602B0BDE84A
:100EC000B040FFF7CBBE00BF226C42F001022264AB
:100ED0004A0706D5BEF1000F03D0226C42F0020291
:100EE00022648A0706D5BEF1000F03D0226C42F0BF
:100EF00004022264BCF1000F09D545EA0E02B2FAE1
:100F000082F2520903D1226C42F008022264226C60
:100F1000002A3FF417AF11F0200118BF002D03D0B5
:100F2000204600F03FFC20684069216C00F0400042
:100F300001F00801401800F0B58000BF206850E8BB
:100F4000030F216820F4907041E80302BAB32068CF
:100F500050E8030F216820F4907041E8030272B357
:100F6000206850E8030F216820F4907041E80302E4
:100F70002AB3206850E8030F216820F4907041E8FC
:100F80000302002ADAD11AE0206850E8050F216830
:100F900020F0010041E80502DAB1206850E8050FB1
:100FA000216820F0010041E8050292B1206850E874
:100FB000050F216820F0010041E805024AB12068D0
:100FC00050E8050F216820F0010041E80502002AE1
:100FD000DAD1206B012824D1206850E8030F216862
:100FE00020F0100041E80302DAB1206850E8030F56
:100FF000216820F0100041E8030292B1206850E817
:10100000030F216820F0100041E803024AB1206874
:1010100050E8030F216820F0100041E80302002A85
:10102000DAD1202084F83E00002020632068406947
:1010300040063FD5206850E8050F216820F04000A9
:1010400041E80502DAB1206850E8050F216820F078
:10105000400041E8050292B1206850E8050F216880
:1010600020F0400041E805024AB1206850E8050F31
:10107000216820F0400041E80502002ADAD1A06B87
:10108000C0B141F29971C0F600010165FFF762F944
:1010900000283FF457AEA06B016D02B0BDE8B04030
:1010A000084700BF2046FFF7DBFD0020206402B0A8
:1010B000B0BD00BF204602B0BDE8B040FFF7D0BDD4
:1010C000401A216851E8031F226821F4907142E818
:1010D0000313DBB1216851E8031F226821F49071EA
:1010E00042E8031393B1216851E8031F226821F4F9
:1010F000907142E803134BB1216851E8031F226845
:1011000021F4907142E80313002BDAD1216851E8F1
:10111000051F226821F0010142E80513DBB12168B7
:1011200051E8051F226821F0010142E8051393B13F
:10113000216851E8051F226821F0010142E80513EA
:101140004BB1216851E8051F226821F0010142E8F6
:101150000513002BDAD1202184F83E1000212163F1
:10116000216851E8031F226821F0100142E80313AF
:10117000002B3FF4A1AE216851E8031F226821F043
:10118000100142E80313002B3FF496AE216851E8AA
:10119000031F226821F0100142E80313002B3FF4E3
:1011A0008BAE216851E8031F226821F0100142E84C
:1011B0000313002BD4D17FE6216A31F8022B6FF3A1
:1011C0005F22426021628AE5002804BF0120704747
:1011D00010B5044690F83D0028B9002084F83C0082
:1011E000204600F021F8242084F83D002068C168E2
:1011F00021F40051C160204600F054FB20680169D1
:1012000021F490410161416921F02A014161C168E5
:1012100041F40051C16000202021206484F83D1079
:1012200084F83E1010BD000080B586B0016841F220
:101230000000C4F20100814202D006B080BD00BFB0
:10124000002143F630020191C4F20202536900F515
:10125000704043F010035361536903F0100301938E
:10126000019B0191136843F001031360126802F0BF
:1012700001020192019A4FF4C06201920222CDE96B
:101280000221032104910721059101A9FFF774F8B8
:10129000252000210022FFF7C7F92520FFF7B0F92C
:1012A00006B080BD90F83E30202B0BD100294FF0C6
:1012B000010318BF002A01D11846704790F83C304E
:1012C000012B01D102207047002303638162222198
:1012D0008285C285036480F83E100269016880F847
:1012E0003C301AB1C86840F48070C8604869002377
:1012F00040F001004861C86840F02000C86018460E
:101300007047000070B50646006841F20001C4F263
:101310000101884239D140F22800C2F20000007871
:10132000202827D140F21005C2F20005E868012804
:1013300017DBAA68012030212A4412F8013C2C69ED
:10134000303B03FB004300EB80002B6102F8011CE3
:10135000D5E902324000013AEA60A3F10102AA6035
:10136000EADC296900240EA0AC60EC6000F0FCFC13
:101370002C610AE040F21001C2F200018A68531C9D
:101380008B608854C8680130C86040F22801C2F2FE
:10139000000130460122BDE87040FFF783BF00BF67
:1013A000696E7075743A2025640A00002DE9F043D7
:1013B00081B0044690F83D0020280DD10F46002949
:1013C0004FF0010000F0DD801646002A00F0D980C1
:1013D00094F83C00012803D1022001B0BDE8F0835D
:1013E000012084F83C000020206421201D4684F860
:1013F0003D00FFF795F8A684E684A1680646B1F59E
:10140000805F03D12069002800F01081B8460027D2
:10141000002084F83C00E18C2068002900F09080D6
:1014200005F101090DE000BFB8F1000F28D018F850
:10143000011B4160E18C0139E184E18C002900F05D
:101440007F8001680906EFD4B9F1000F0AD0FDB121
:10145000FFF766F8801BA8421AD8206801680906C1
:10146000F6D5E1E701680906DED4016809065CBF2C
:1014700001685FEA0161D7D401680906F2D5D3E7B4
:1014800037F8021B4FF000086FF35F21D1E700BF70
:10149000206850E8030F216820F4D07041E803026F
:1014A000BAB3206850E8030F216820F4D07041E8F7
:1014B000030272B3206850E8030F216820F4D07053
:1014C00041E803022AB3206850E8030F216820F4A2
:1014D000D07041E80302002ADAD11AE0206850E80F
:1014E000050F216820F0010041E80502DAB120680B
:1014F00050E8050F216820F0010041E8050292B193
:10150000206850E8050F216820F0010041E805023D
:101510004AB1206850E8050F216820F0010041E839
:101520000502002ADAD1202084F83D0084F83E002C
:10153000002084F83C00032001B0BDE8F08300BF28
:101540000168490619D4FDB1691C0DD1016849062D
:1015500013D4016849065CBF01685FEA41610CD49D
:1015600001684906F2D508E0FEF7DAFF801BA842C1
:101570000AD8206800684006F6D5202084F83D008F
:10158000002001B0BDE8F083206850E8030F216817
:1015900020F4D07041E80302E2B3206850E8030F62
:1015A000216820F4D07041E803029AB3206850E823
:1015B000030F216820F4D07041E8030252B3206881
:1015C00050E8030F216820F4D07041E80302002A9C
:1015D000DAD11FE0206850E8050F216820F00100F3
:1015E00041E80502002A9ED0206850E8050F2168D6
:1015F00020F0010041E80502002A3FF494AF206882
:1016000050E8050F216820F0010041E80502002A9A
:101610003FF489AF206850E8050F216820F00100F1
:1016200041E80502002AD5D17DE700BF4FF0000850
:10163000EEE6000070470000FEE7000082B00020E8
:1016400043F630010190C4F202010A6842F08002C0
:101650000A600A6802F080020192019A009008680C
:1016600040F001000860086800F001000090009858
:1016700002B0704710B540F22804C2F2000441F2F3
:101680000001C4F20101204640F8381F4FF4E13157
:1016900000220C23C0E90112C0E90322C0E905328F
:1016A000C261FFF791FD002818BFFEF705FE04F1A7
:1016B000380021460122BDE81040FFF7F3BD0000CD
:1016C000FEE70000FEE700007047000070470000E2
:1016D000FEF72CBFB0B592B0002443F64000CDE930
:1016E0000A44CDE908440594CDE90344CDE9014419
:1016F0000094C4F202000168022541F080510160AB
:10170000006800F080500090009847F200000094BC
:10171000C4F20000016841F4804101600068A82122
:1017200000F4804000900098012006904FF4803033
:1017300007904FF480000D9004200E90119006A8A1
:101740000C95CDE90F15FFF7B9F828B1EFF310802C
:1017500072B600BFFEE700BF0F20CDE901054FF4D0
:10176000A05004904FF48050059001A805210394E7
:10177000FEF796FF20B1EFF3108072B6FEE700BFD0
:1017800012B0B0BD4EF68850CEF20000016841F4B0
:101790007001016070470000806B0021C185C18429
:1017A000FFF75EBA81B090F83E10222921D18368FC
:1017B0000246B3F5805F09D152F8281F52F8183C51
:1017C000002B63D003685B680AE000BF52F8281F53
:1017D00013B90369002BF5D003685B6803F07F033E
:1017E0000B70116801311160C18D01390A04C18586
:1017F00002D001B0704700BF0168CA6822F0200221
:10180000CA60CA6822F48072CA604A6922F0010282
:101810004A61202180F83E10016B01293ED1002150
:10182000016300BF016851E8031F026821F0100145
:1018300042E80313DBB1016851E8031F026821F09D
:10184000100142E8031393B1016851E8031F0268D5
:1018500021F0100142E803134BB1016851E8031F66
:10186000026821F0100142E80313002BDAD101686D
:101870000A68D20606D5002200920A6800924968DA
:1018800000910099818D01B0FFF7E8B902685268B4
:101890006FF35F2221F8022B8162A5E701B0FFF709
:1018A00031BD000010B504460068D4E902C22369C6
:1018B000016921F4405111430161626943EA0C015D
:1018C000E3691143C268194349F20C639A43114317
:1018D000C1604169A26921F4407141F200431143A2
:1018E00040F48062C4F201039A42416102D1FEF7E2
:1018F0009BFF01E0FEF784FFE16963681922B1F5FF
:10190000004FA0FB020123D15A00DB0FFEF758FC69
:1019100048F21F51C5F2EB11A0FB01235A094FF603
:101920009C73C0F6FF7303F1805302FB0300322364
:1019300003EBC000A0FB01014FF4F87000EA1110A6
:1019400000EB0210C1F3421108442168886010BD09
:101950009A009B0FFEF734FC48F21F51C5F2EB11C1
:10196000A0FB01235A094FF69C73C0F6FF7302FBDC
:101970000300322303EB0010A0FB0101F02000EA7A
:10198000511000EB0210C1F3431108442168886034
:1019900010BD0000B0B540F26004C2F20004204661
:1019A000FFF760F920680168890601D4B0BD00BF67
:1019B0006FF0200240F2A40541680260C2F2000507
:1019C0002A78C8B2062A1FD3292A39D84AF6AB2367
:1019D000CAF6AA23A2FB033404F0FE0303EB54036C
:1019E000D31A03F00304012C42D0002B50D1A97864
:1019F00040F230046B7801EB4101C2F20004214453
:101A0000C880511C584053E0052A88BFB0BDDFE8AC
:101A100002F003576B7B8797542840F09D8040F27B
:101A20003001C2F200016A78087041F6387182F024
:101A30005400C0F60001085C012129706870B0BD37
:101A40002A3A042AB2D8DFE802F003A1ADBD8B0028
:101A500040F23001C2F200016A78488541F63871DF
:101A60005040C0F60001085C2B2129706870B0BDA1
:101A7000AB7840F2300403EB4303C2F2000423448A
:101A8000DC8895F801C004EB0121D9800DE000BF8E
:101A9000A97840F2300301EB4104C2F2000395F84B
:101AA00001C0234401311872A970511C80EA0C0056
:101AB00041F63872C0F60002105C29706870B0BD43
:101AC0002C2849D140F23001C2F200016A784870F6
:101AD00041F6387182F02C00C0F60001085C02214A
:101AE00029706870B0BD00BF40F23001C2F2000141
:101AF0006A78488041F638715040C0F60001085CB1
:101B0000032129706870B0BD40F23002C2F20002B9
:101B1000538803EB01215180697804225CE000BF07
:101B200040F23001C2F200016A78888041F63871D3
:101B30005040C0F60001085C052129706870B0BDF6
:101B400040F23002C2F20002938803EB012191803F
:101B50006978062240E000BF00202880B0BD00BFA9
:101B6000697840F23002C2F20002814282F82E000F
:101B700008D100F03DF840F2AA00C2F2000001884E
:101B80000131018000202880A870B0BD40F23002F1
:101B9000C2F20002538D03EB0121518569782C229A
:101BA0001AE000BF40F23001C2F200016A78888575
:101BB00041F638715040C0F60001085C2D212970B3
:101BC0006870B0BD40F23002C2F20002938D03EBA8
:101BD0000121918569782E22484041F63871C0F67E
:101BE0000001085C2A706870B0BD0000FEE70000CC
:101BF00040F2280CC2F2000CBCF80E30BCF8021007
:101C0000DCF804202BB101311A44ACF80210CCF8F6
:101C10000420BCF811302BB101311A44ACF8021089
:101C2000CCF80420BCF814302BB101311A44ACF8C4
:101C30000210CCF80420BCF817302BB101311A4443
:101C4000ACF80210CCF80420BCF81A302BB10131EA
:101C50001A44ACF80210CCF80420BCF81D302BB1AB
:101C600001311A44ACF80210CCF80420BCF8203042
:101C70002BB101311A44ACF80210CCF80420BCF8A6
:101C800023302BB101311A44ACF80210CCF80420F7
:101C9000BCF826302BB101311A44ACF80210CCF854
:101CA0000420BCF829302BB101311A44ACF80210E1
:101CB000CCF80420BCF82C302BB101311A44ACF81C
:101CC0000210CCF80420BCF82F302BB101311A449B
:101CD000ACF80210CCF804209CF801300133D8B2E3
:101CE00064288CF8013018BF704788B2B2FBF0F05E
:101CF00040F2A801C2F2000108800020CCF80400E4
:101D0000ACF802008CF801007047000080B582B08A
:101D1000019040F22800C2F20000383001A90122EF
:101D20004FF47A73FFF742FB019802B080BD0000C8
:101D3000FEF70AFCFFF7CEFCFFF780FCFFF79AFCEA
:101D400002A000F0DBF800BFFEE700BF696E70750F
:101D50007420666F726D61743A20646174612B5BEC
:101D600073706163655D00000FB4054B10B503A986
:101D7000044A029800F018F810BC5DF814FB00004B
:101D80000D1D00080000002002E008C8121F08C155
:101D9000002AFAD170477047002001E001C1121FEC
:101DA000002AFBD1704700002DE9FF4F89B09B4608
:101DB0000446002506E025280BD05A460B9990478B
:101DC000641C6D1C20780028F5D10DB02846BDE8B4
:101DD000F08F0027B8460122474900E0074314F876
:101DE000013F203B02FA03F00842F7D120782E2869
:101DF00019D114F8010F47F004072A280ED06FF00C
:101E00002F022078A0F1300109290CD808EB8801B5
:101E100002EB410100EB0108641CF2E70A98641C24
:101E200050F8048B0A9020780028CED0642808D07F
:101E3000692806D075281ED05A460B9990476D1C0C
:101E400058E00A994FF00A0901C90A91002802DAFC
:101E500040422D2102E0390504D52B218DF82010B8
:101E6000012103E0F90704D02021F7E78A4608AEF4
:101E70000DE00021FAE70A994FF00A0901C90A9119
:101E8000F7E74946FEF7CDF9303106F8011D002885
:101E9000F7D1ADEB060000F12009780701D44FF02F
:101EA0000108C84502DDA8EB090000E000208046DB
:101EB000002706E008A85A46C05D0B9990476D1CA4
:101EC0007F1C5745F6DB04E030205A460B999047BB
:101ED0006D1CB8F10001A8F10108F5DC05E016F869
:101EE000010B5A460B9990476D1CB9F10001A9F1FD
:101EF0000109F4DC641C65E70928010010B50446FB
:101F000001E0FFF703FF14F8010B04490028F8D1A2
:101F1000BDE810400A20FFF7F9BE000000000020D5
:101F20000000000000000000010203040607080989
:101F30000000000001020304004D9AD77934E3AE9B
:101F4000F2BF68258BC6115CA9E4337ED09D4A0799
:101F50005B16C18C226FB8F51F5285C8662BFCB189
:101F6000EDA0773A94D90E43B6FB2C61CF82551879
:101F70004409DE933D70A7EA3E73A4E9470ADD9069
:101F8000CC81561BB5F82F6297DA0D40EEA3743959
:101F90006528FFB21C5186CB216CBBF65815C28F49
:101FA000D39E4904AAE7307D88C5125FF1BC6B2639
:101FB0007A37E0AD034E99D47C31E6AB05489FD229
:101FC0008EC31459F7BA6D20D5984F02ACE1367B19
:101FD000276ABDF05E13C489632EF9B41A5780CD09
:101FE00091DC0B46E8A5723FCA87501DB3FE2964F9
:101FF0003875A2EF410CDB96420FD8953B76A1ECE9
:10200000B0FD2A67C984531EEBA6713C92DF0845D8
:10201000195483CE602DFAB75D10C78A2469BEF3C8
:10202000AFE23578D69B4C01F4B96E238DC0175AB8
:10203000064B9CD17F32E5A8582000080000002004
:1020400028000000881D00088020000828000020CB
:1020500088040000981D0008000000000100000036
:10206000100000000024F400303030303030000028
:102070000000000000000000000000000000000060
:040000050800018965
:00000001FF
